:020000040800F2
:1000000000040020C5020008A119000849180008D2
:100010009919000801040008B92500080000000033
:10002000000000000000000000000000211A00088D
:100030000904000800000000B1190008491A00086E
:10004000DF02000800000000DF020008DF020008F5
:10005000DF020008DF0200080000000000000000CE
:10006000DF020008DF020008DF02000800000000D5
:1000700000000000DF020008000000000000000097
:10008000DF020008DF020008DF020008DF020008CC
:10009000DF020008DF020008DF020008DF020008BC
:1000A000DF020008DF020008DF020008DF020008AC
:1000B000DF020008DF020008DF020008DF0200089C
:1000C000DF0200080000000000000000DF0200085E
:1000D000DF020008DF020008DF020008DF0200087C
:1000E000DF020008DF020008DF020008DF0200086C
:1000F000DF020008DF020008DF020008DF0200085C
:10010000DF020008DF020008DF020008DF0200084B
:10011000DF020008DF020008DF020008DF0200083B
:10012000DF020008DF020008DF020008DF0200082B
:10013000DF020008DF020008DF020008DF0200081B
:10014000DF020008DF020008DF020008DF0200080B
:10015000DF020008DF020008DF020008DF020008FB
:10016000DF020008DF020008DF020008DF020008EB
:10017000DF020008DF020008DF020008DF020008DB
:10018000DF020008DF020008DF020008DF020008CB
:10019000DF020008DF020008DF020008DF020008BB
:1001A000DF020008DF020008DF020008DF020008AB
:1001B000DF020008DF020008DF020008DF0200089B
:1001C000DF020008DF020008DF020008DF0200088B
:1001D000DF020008DF02000800000000000000004D
:1001E00000000000DF020008DF020008DF02000854
:1001F000DF020008DF02000800000000000000002D
:10020000DF020008DF020008DF020008DF0200084A
:10021000DF020008DF020008DF020008DF0200083A
:10022000DF020008DF020008DF020008DF0200082A
:10023000DF020008DF020008DF020008DF0200081A
:10024000DF020008DF020008DF020008DF0200080A
:10025000DF020008DF020008DF020008DF020008FA
:10026000DF020008DF020008DF020008DF020008EA
:10027000DF020008DF020008DF020008DF020008DA
:10028000DF020008DF020008DF020008DF020008CA
:10029000DF020008DF020008DF020008DF020008BA
:1002A000DF020008DF020008DF020008DF020008AA
:1002B000DFF80CD000F08CF800480047C12500089A
:1002C000000400200648804706480047FEE7FEE796
:1002D000FEE7FEE7FEE7FEE7FEE7FEE7FEE7FEE7F6
:1002E000811B0008B10200082DE9F05F05460020DF
:1002F00092469B4688460646814640241BE0284697
:1003000041464746224600F053F853465A46C01A23
:10031000914110D311461846224600F03AF82D1AA2
:1003200067EB01084F4622460120002100F031F81A
:1003300017EB00094E41201EA4F10104DFDC484602
:1003400031462A464346BDE8F09F40EA01039B0739
:1003500003D009E008C9121F08C0042AFAD203E03A
:1003600011F8013B00F8013B521EF9D27047D2B29E
:1003700001E000F8012B491EFBD270470022F6E78E
:1003800010B513460A4604461946FFF7F0FF20460B
:1003900010BD202A04DB203A00FA02F10020704749
:1003A0009140C2F1200320FA03F3194390407047B3
:1003B000202A04DB203A21FA02F00021704721FABA
:1003C00002F3D040C2F12002914008431946704721
:1003D0001CB509480090094801900546009C06E0BC
:1003E000E06840F0010394E8070098471034AC42FD
:1003F000F6D3FFF761FF00007C470008AC47000818
:10040000FEE7000000000000704700000000000050
:1004100072B600BFFEE700002DE9F04F84B00D6812
:10042000002D00F0CB8003904FF67F7300F1200287
:10043000C0F229034FF0000B00270026009203981A
:10044000029103EA9020039B019009E001360D68B8
:1004500035FA06F207F102070BF1040B00F0AE804B
:10046000012000FA06F415EA0408EFD0D1F8049050
:10047000032009F0030AAAF10105012D00FA07F58E
:1004800014D8D3F808C0D1E902E22CEA050CBA402E
:1004900042EA0C029A60C9F30012D3F804C02CEAB5
:1004A0000404B24022435A6008E000BFD1F808E0DB
:1004B000BAF1030F08BFBEF1010F29D0DA684FEA85
:1004C000460CE843AA430EFA07F5BAF1020F42EAD6
:1004D0000502DA601AD16FF00301009B01EA5602AF
:1004E0000BF01C040F2153F802E001FA04F9029901
:1004F0002EEA090E0D6905FA04F444EA0E059D5032
:10050000D1F80490039B09F0030A09E0029907E07F
:100510004FF0030ABC460AFA07F20299D04300BF23
:100520001A680AFA0CF5024019F4403F42EA050243
:100530001A608BD040F2305326F00302C5F6000358
:100540000BF00C050F2052F803C000FA05F40198D7
:100550002CEA040400FA05F54FF0B0402543D550CD
:1005600002684D6842EA0804EB0258BF22EA080418
:1005700040F2040CC5F6000C0460AC02DCF800206C
:1005800042EA080358BF22EA0803AC03CCF8003063
:10059000DCF8802042EA080358BF22EA0803ED0392
:1005A000CCF88030DCF87C2042EA080358BF22EA0D
:1005B0000803CCF87C30039B48E700BF04B0BDE8DB
:1005C000F08F0000000000001823002A08BF282335
:1005D000C15070470000000044F2FC20C2F200400D
:1005E000006870470000000040F2000044F2FC2167
:1005F000C2F20040C2F2004100780A68104408606C
:10060000704700000000000080B5032000F0C8F82B
:100610000F2000F009F800281CBF012080BD00F069
:1006200087F8002080BD0000B0B540F20005C2F29E
:1006300000452978F1B1044640F20800C2F20040BA
:100640004FF47A72B2FBF1F10068B0FBF1F000F008
:10065000BBFF0F2C01464FF001000AD8002918BF3C
:10066000B0BD4FF0FF300022214600F069F80020B5
:100670006C60B0BD0120B0BD10B54EF6A0514378FE
:10068000CEF2000190F800C041F8083C0B6823F05E
:1006900001030B600B6823F001030B60436841F812
:1006A000043C90F80CE0C27A837A447B120642EA5A
:1006B0000E7290F80EE042EAC342C37B42EA8442E3
:1006C000447A42EA4E42007A42EA034242EA042273
:1006D00042EA400040EA0C00086010BD0000000043
:1006E0004EF62450CEF20000BFF35F8F016821F474
:1006F0008031016000210167BFF34F8FBFF36F8F1F
:1007000070470000000000004EF6245140F0010048
:10071000CEF20001BFF35F8F0867086840F48030B5
:100720000860BFF34F8FBFF36F8F7047000000006A
:100730006FF001000F21002200F002B8000000005D
:1007400070B54EF60C5C4FF0FF36CEF2000C00F1A7
:10075000604505F56445DCF80030C3F3022E8EF0E9
:100760000703042B28BF0423BEF1030406FA03F396
:1007700021EA030100F00F0338BF0024043B0028E6
:10078000634406FA04F048BF03F10C05A14022EAD5
:10079000000008430001287070BD00000000000048
:1007A0004EF60C514FF6FF03CEF200010A681A40D4
:1007B00060F30A2242F0806040F0FD7008607047EC
:1007C0002DE9F041026844F22C485103C5F60208B5
:1007D00006D400210123D70700F0878068E000BF1E
:1007E000D8F8441011F44072C16F25D001F4407361
:1007F0009A4221D0D8F8D42342F48072C8F8D42386
:10080000D8F8D423D20505D4012100230268D707E4
:100810004ED16AE0D8F84420D8F8443043F480330D
:10082000C8F84430D8F8443022F4407223F48033BE
:10083000C8F84430C8F84420B1F5807F18D1054687
:10084000FFF7CAFE044641F2883700BFD8F84400DB
:1008500080070BD4FFF7C0FE001BB842F6D9032176
:10086000002328460268D70722D13EE02846E96FD8
:1008700058F81C2C6FF0300322F47C5203EA111359
:1008800011F47C3F01F4407118BF1A43012348F86A
:100890001C2CD8F844201143C8F84410D8F8441050
:1008A00041F40041C8F8441000210268D7071CD069
:1008B0004568032D50D84027DFE805F002100E02EE
:1008C0009BB1D8F8203023F003032B430025C8F850
:1008D000203093070CD443E04FF48027D8F8004031
:1008E0002743C8F80070002BEBD10D46930737D58E
:1008F000846874B1102C05D0202C27D14FF48013BC
:1009000002E000BF4FF40023D8F800703B43C8F862
:1009100000302B4685B1510725D41946130738D529
:10092000D8F82030076923F040533B43C8F8203003
:10093000930230D532E000BFD8F82030002523F0F4
:1009400030032343C8F820300AE000BF012501230B
:10095000510708D4E1E700BF012501219307C7D45F
:100960000B465107D9D5C4687CB1402C06D0802CE9
:1009700040F0FE804FF4801102E000BF4FF40021F0
:10098000D8F800703943C8F80010294665B313073A
:10099000C6D4930202D40B4612E000BF446D2CB1C2
:1009A000042C1BD14FF4801302E000BF4FF400234E
:1009B000D8F8007043EA0703C8F800302B46FDB1B1
:1009C000D10653D544692CB3B4F1007F29D0B4F1DA
:1009D000807F40F0D3804FF000511DE001250123BE
:1009E000D106EFD442E000BFD8F82010002521F056
:1009F000C0012143C8F8201019461307C9D58FE755
:100A0000D8F82030002523F004032343C8F8203011
:100A1000C1E700BF4FF48031D8F800703943C8F8FF
:100A200000102946D5B1930623D40C46510637D57C
:100A3000D8F82410C36921F040511943C8F8241094
:100A400011062FD5D8F82010036A21F4403119433C
:100A5000C8F82010D10527D528E000BFD8F820100D
:100A6000002521F040712143C8F820101946930653
:100A7000DBD583694FEA3357052F00F223824FF409
:100A80008034DFE817F00700E100DF00070007000F
:100A9000070000BF002D2C4600F0DF805106C7D4B0
:100AA0001106CFD4D10501D423460CE0416A41B1EF
:100AB000B1F5802F14D1D8F8003043F08043C8F846
:100AC00000302B4695B191052ED5846AF4B1B4F56A
:100AD000800F15D0B4F5000F56D14FF4803110E0DF
:100AE000012501239105F0D41EE000BFD8F8203085
:100AF000002523F480231943C8F82010D4E700BF51
:100B00004021D8F800703943C8F8001029461DB1BB
:100B100013053DD50BE000BFD8F82410002521F4C3
:100B200040012143C8F824101946130530D5C46A82
:100B30006FF0010303EB3433022B0AD34FEA343353
:100B40003BB1012B48D1D8F8003043F00053C8F82E
:100B500000302B4615B1510542D51CE0D8F82430A1
:100B6000002523F440532343C8F8243010E000BF8D
:100B70000125012113077FF50CAFD1E601250121E5
:100B800093063FF576AF50E7012501211305CED43A
:100B90000B46510524D5046B6FF0010101EB3421A4
:100BA00002290AD34FEA342139B101292ED1D8F8CC
:100BB000001041F00051C8F80010294615B1D304C7
:100BC00028D510E0D8F82410002521F440712143E5
:100BD000C8F8241004E000BF012501235105DAD430
:100BE0001946D30416D5446B4FEA3443052B00F263
:100BF0006F814FF48037DFE803F0033F3D030303C9
:100C0000002D2B4640D0910449D506E00125012155
:100C1000D304E8D40B46910441D5846B4FEA3421C8
:100C2000052900F25B814FF48037DFE801F0035BB8
:100C300059030303002D29465CD0530440F178800A
:100C400030E000BF4FF00064D8F800702743C8F8C8
:100C50000070002D2C467FF421AFD8F820700025BD
:100C600027F4E0073B43C8F820300C4651067FF5D7
:100C700017AFDDE64FF00057D8F800303B43C8F817
:100C80000030002D2B46BED1D8F82430002523F4A7
:100C9000E0232343C8F824300B469104BDD4194601
:100CA000530445D5C46B4FEA3433052B00F21C8145
:100CB0004FF48037DFE803F0042C2A04040400BF5B
:100CC0002B466DB3110436D41946D30344D5D8F856
:100CD000003043F00053C8F8003093033ED53FE0A6
:100CE0004FF00057D8F800103943C8F80010002D15
:100CF0002946A2D1D8F82C10002521F4E061214327
:100D0000C8F82C101946530412D5CBE74FF0005702
:100D1000D8F800303B43C8F80030002D2B46D1D125
:100D2000D8F82C30002523F4E0432343C8F82C30B6
:100D30000B461104C8D5046C052C00F2DB804FF47F
:100D40000031DFE804F003A5A3030303002D2946C7
:100D500000F0A780D303BAD4930301D40B460CE070
:100D6000846CB4F1006F06D004BBD8F8003043F0B7
:100D70000053C8F800302B46F5B111033CD5C46CC4
:100D80004FEA3447042F00F27B804021DFE807F070
:100D900024221E04040000BF29462DB3D3022ED402
:100DA0000B46510240F1C9803DE000BF01250123FF
:100DB0001103E4D420E000BFD8F82030002523F050
:100DC00000632343C8F82030C8E700BF4FF000613C
:100DD00002E000BF4FF48031D8F800703943C8F802
:100DE0000010002D2946D9D1D8F82810002521F46B
:100DF000E0212143C8F828101946D302D0D5046D4C
:100E00004FEA3457052F00F27B804023DFE807F0DC
:100E1000807E5604040400BF002D2B4600F0818024
:100E2000510240F18A80846E4FEA3467032F21D843
:100E30004021DFE807F00903070E00BF4FF48021CF
:100E400002E000BF4FF00051D8F800703943C8F8F5
:100E50000010294625B1130240F19A8070E000BFCE
:100E6000D8F82410002521F040712143C8F824103F
:100E700063E000BF01250121130261D488E000BFB7
:100E800001250121D302BAD48AE700BF4FF0805177
:100E9000D8F800703943C8F80010002D29467FF4B7
:100EA00059AFD8F82C10002521F007012143C8F8CC
:100EB0002C101946D3037FF54FAF08E74FF00063BE
:100EC00026E000BF0125012451067FF5E9ADAFE51D
:100ED0000125012391043FF5A0AEE0E601250121A3
:100EE00053043FF5DFAE23E70125012311043FF54D
:100EF00022AFE9E601250121D3037FF52DAFE6E618
:100F00000125012351023FF58EAF16E04FF48033E7
:100F1000D8F800703B43C8F80030002D2B467FF412
:100F20007FAFD8F82830002523F4E0032343C8F826
:100F300028300B4651023FF576AF1946130227D5EC
:100F4000846D4FEA3427042F4ED84023DFE807F0A2
:100F5000100E0A04040000BF2B468DB1D10147D505
:100F600019E000BF4FF0006302E000BF4FF4803390
:100F7000D8F800703B43C8F80030002D2B46EDD167
:100F8000D8F82830002523F4E0632343C8F828303C
:100F90000B46D1012CD5C46D4FEA3417042F3DD830
:100FA0004021DFE807F00F0D0903030029468DB14A
:100FB000930137D51FE000BF4FF0006102E000BF92
:100FC0004FF48031D8F800703943C8F80010002D74
:100FD0002946EDD1D8F82410002521F070012143D5
:100FE000C8F8241004E000BF01250123D101D2D4A8
:100FF0001946930116D5046E4FEA3413052B00F2FF
:1010000009814FF40037DFE803F0032523030303CE
:101010002B463DB3510130D507E000BF012501212A
:101020009301E8D40B46510127D5446E4FEA3411A1
:10103000052900F2F5804FF40037DFE801F00337AF
:1010400035030303002D294638D0D30041D517E0DE
:101050004FF08057D8F800303B43C8F80030002DDF
:101060002B46D7D1D8F82830002523F0700323432E
:10107000C8F828300B465101D7D41946D30028D5DB
:10108000C36E052B00F2D2804FF40037DFE803F087
:10109000045C5A04040400BF002D2C465CD091006F
:1010A00040F1788018E000BF4FF08057D8F800106A
:1010B0003943C8F80010002D2946C6D1D8F82C10A5
:1010C000002521F070012143C8F82C101946D300E7
:1010D000D6D40C4691005DD5016F052900F2AC8095
:1010E0004FF40033DFE801F004464404040400BF79
:1010F000002D2B4646D051004FD41946B2F1FF3F88
:1011000056DC836F6FF0010707EBB337022F0AD36A
:101110004FEAB3373FB1012F06D1D8F8007047F03E
:101120008057C8F800701DB10121120142D44AE075
:10113000D8F8207027F440473B43C8F8203012010C
:1011400038D440E04FF08057D8F800603743C8F8F3
:101150000070002D2C46A2D1D8F82870002527F069
:1011600007073B43C8F828300C46910012D5B3E777
:101170004FF08053D8F800703B43C8F80030002D82
:101180002B46B8D1D8F82430002523F007031943A3
:10119000C8F8241023465100AFD5446F002C18BF67
:1011A000B4F5805F16D1294605B3B2F1FF3FA8DD43
:1011B000120108D558F81C2CD0F8800022F4004207
:1011C000104348F81C0C002918BF01210846BDE84F
:1011D000F08100BFB4F5005F16D1D8F8001041F0DF
:1011E0008051C8F80010002D2946DED1D8F8201013
:1011F000002521F440512143C8F820101946B2F1CE
:10120000FF3FD5DC7DE700BF01250121B2F1FF3FA3
:10121000CEDC76E70125012351013FF506AF2CE72F
:1012200001250121D3003FF52BAF52E70125012411
:1012300091003FF551AFADE7012501235100ACD43A
:101240005BE700000000000010B544F21C44C5F646
:10125000020400F025F9216801F00F01082907D3E5
:1012600044F25072C0F60002114411F8081CC84044
:10127000616801F00701033938BF0021C84010BD83
:1012800010B544F21C44C5F6020400F009F92168C7
:1012900001F00F01082907D344F25072C0F6000292
:1012A000114411F8081CC8406168C1F302110339E8
:1012B00038BF0021C84010BD10B544F21C44C5F62B
:1012C000020400F0EDF8216801F00F01082907D3AE
:1012D00044F25072C0F60002114411F8081CC840D4
:1012E0006168C1F30221033938BF0021C84010BD35
:1012F00010B544F20043C5F60203D3F838E09A6A09
:10130000986BC2F305344CB16FF35F20D96A0905BD
:1013100000F1010C0AD49FED270A12E00021CEF360
:1013200006400130B1FBF0F010BD00BFD86B9FED5F
:10133000221AC0F3CC0000EE100AB8EE400A20EEEC
:10134000010A02F003009FED1D1ADFE800F0030917
:101350001A0600BF1868800606D49FED161A10E022
:101360009FED171A0DE000BF186849F20001C0F2A6
:10137000D031C0F3C10021FA00F001EE100AB8EE3E
:10138000411A02EE104A03EE10CAB8EE422AB8EE35
:10139000433A81EE021A30EE030A20EE010ABCEE57
:1013A000C00A10EE101ACEF306400130B1FBF0F087
:1013B00010BD00BF0000000000000039001BB74B4B
:1013C0000024744A0000000010B544F20043C5F642
:1013D0000203D3F840E09A6A186CC2F305544CB18A
:1013E0006FF35F20D96A490200F1010C0AD49FED26
:1013F000270A12E00021CEF306400130B1FBF0F0E5
:1014000010BD00BF586C9FED221AC0F3CC0000EE57
:10141000100AB8EE400A20EE010A02F003009FED28
:101420001D1ADFE800F003091A0600BF18688006DD
:1014300006D49FED161A10E09FED171A0DE000BFBD
:10144000186849F20001C0F2D031C0F3C10021FA9E
:1014500000F001EE100AB8EE411A02EE104A03EE57
:1014600010CAB8EE422AB8EE433A81EE021A30EEC4
:10147000030A20EE010ABCEEC00A10EE101ACEF3E9
:1014800006400130B1FBF0F010BD00BF00000000CD
:1014900000000039001BB74B0024744A0000000014
:1014A00044F20040C5F602000169C1F3C2010329FC
:1014B00016D002290ED0002932D10168890635D50F
:1014C000016849F20002C0F2D032C1F3C10122FA30
:1014D00001F167E043F20061C0F26E1162E000BF0B
:1014E000836A816AD0F82CC0426BC1F30511E9B15F
:1014F000C2F3CC0203F0030300EE102A9FED2E1A74
:10150000B8EE400A20EE010A9FED2C1ADFE803F046
:1015100002211021026892060ED49FED2A0A33E0C0
:1015200040F60011C0F23D013CE000BF002139E06F
:101530009FED231A0DE000BF026849F20003C0F2DC
:10154000D033C2F3C10223FA02F201EE102AB8EE40
:10155000411A026B9FED1B3A6FF35F2202EE102AD5
:101560005FEACC7203FE000A03EE101AB8EE422ABC
:10157000B8EE433A30EE020AB7EE002A81EE031AC3
:1015800030EE020A21EE000A016BC1F3462101315F
:1015900001EE101AB8EE411A80EE010ABCEEC00A44
:1015A00010EE101A806900F00F00073838BF0020D5
:1015B00021FA00F0704700BF000000390024744A8F
:1015C000001BB74B00000000411E0020B0EB116F64
:1015D00002D00120704700BF4EF21002F023CEF27D
:1015E000000251604EF62351CEF200010B7007212C
:1015F000906011607047000090F88410012901D1BB
:10160000022070472421C0F8881001680A680B681E
:1016100022F0005223F001030B60002343660A60AE
:101620002021C0F8881080F8843000207047000026
:1016300090F88420012A01D10220704770B524223D
:10164000C0F888200268D0F864E0BEF1000FD2F83C
:1016500000C0136823F001031360936823F06063F4
:1016600041EA0301916019D0916844F2587E936871
:10167000C0F6000E5B0F44F26075C1F34266C0F61F
:1016800000051EF80340E95C2301B3FBF1F11EF8ED
:101690000630AE5D1B01B3FBF6F301E0012101232F
:1016A000A0F86A102021A0F86830C2F800C0C0F885
:1016B0008810002180F88410002070BD0000000018
:1016C00090F88420012A01D10220704770B52422AD
:1016D000C0F888200268D0F864E0BEF1000FD2F8AC
:1016E00000C0136823F001031360936823F0604384
:1016F00041EA0301916019D0916844F2587E9368E1
:10170000C0F6000E5B0F44F26075C1F34266C0F68E
:1017100000051EF80340E95C2301B3FBF1F11EF85C
:101720000630AE5D1B01B3FBF6F301E0012101239E
:10173000A0F86A102021A0F86830C2F800C0C0F8F4
:101740008810002180F88410002070BD0000000087
:1017500010B5D8B10446D0F8880028B9002084F824
:101760008400204600F028F82420C4F8880020686F
:10177000A16A0268002922F00101016002D020461E
:1017800000F00EFA204600F033FB08B1012010BD36
:101790002068416821F490414160816821F02A016C
:1017A0008160016841F0010101602046BDE8104000
:1017B00000F066BA0000000010B5A8B0044602A808
:1017C00000212391CDE92611CDE924110430802197
:1017D000FEF7D4FD41F200012068C4F200218842E6
:1017E00002D028B010BD00BF4FF08050029002A878
:1017F000FEF7E6FF08B1FEF70BFE44F24050C5F6D7
:101800000200016941F01001016101690191019932
:10181000016841F0010101600068019001984FF4F6
:10182000C0602390022024900020CDE925000720ED
:101830002790002023A9C5F60200FEF7EDFD28B091
:1018400010BD000000000000FEE7000000000000E6
:10185000012000F059FFFBE780B541F6510044F24A
:101860001472C0F60000C0F60002002100F0C4FFB0
:1018700040F21011C2F20041086080BD000000007B
:101880002DE9F04387B000200690CDE90400CDE9B2
:10189000020044F2405040F60009C5F60200C5F6C9
:1018A000020901220127016841F00101016001687C
:1018B00001910199016841F0040101600168019101
:1018C0000199016841F008010160006801900198E8
:1018D00001214846FEF778FE09F580654FF4804106
:1018E000012228464FF48048FEF76EFE02AE4846BD
:1018F00031460497CDE9027702240594FEF78CFD6A
:1019000028463146CDE90287CDE90474FEF784FD0F
:1019100007B0BDE8F083000080B540F2141041F23A
:101920000001C2F20040C4F200210C2201604FF419
:10193000E13141600021C0E902110161C0E90521E6
:10194000C0E90711C0E90911FFF702FF08B1FEF76E
:101950005FFD40F214100021C2F20040FFF7B0FE1C
:1019600008B1FEF755FD40F214100021C2F200400C
:10197000FFF75EFE08B1FEF74BFD40F21410C2F215
:101980000040FFF739FE002808BF80BDBDE8804059
:10199000FEF73EBD00000000FEE700000000000072
:1019A000FEE7000000000000000000000000000052
:1019B000EFF30980BFF36F8F154B1A681EF0100FFD
:1019C00008BF20ED108A20E9F04F10602DE90900D2
:1019D0004FF0500080F31188BFF34F8FBFF36F8F2C
:1019E00002F08EF84FF0000080F31188BDE8090086
:1019F00019680868B0E8F04F1EF0100F08BFB0EC8F
:101A0000108A80F30988BFF36F8F704700BF00BF53
:101A10009802002400000000000000000000000008
:101A2000074B19680868B0E8F04F80F30988BFF3E6
:101A30006F8F4FF0000080F31188704700BF00BF28
:101A4000980200240000000080B5FEF7CDFD02F0F2
:101A50000BFC012808BF80BDBDE8804002F094B9AE
:101A600044F20040C5F602000169C1F3C202032A34
:101A700008D840F60011C0F23D01DFE802F0036B28
:101A80000D1300BF016849F20002C0F2D032C1F369
:101A9000C10122FA01F15DE043F20061C0F26E1172
:101AA00058E000BF826A816AC36ADB07C1F305118F
:101AB0000CD19FED2F0AB1B102F00302022A15D01A
:101AC000012A17D19FED2D1A21E000BF436B9FED36
:101AD000291AC3F3CC0300EE103AB8EE400A20EE08
:101AE000010A0029E8D1002134E000BF9FED221A4D
:101AF0000DE000BF026849F20003C0F2D033C2F328
:101B0000C10223FA02F201EE102AB8EE411A026B6A
:101B100003EE101A6FF35F22016B02EE102AC1F37D
:101B20004621B8EE433A0131B8EE422A81EE031A5B
:101B300030EE020AB7EE002A30EE020A21EE000A69
:101B400001EE101AB8EE411A80EE010ABCEEC00A8E
:101B500010EE101A806940F2080200F00F00C2F285
:101B60000042073838BF002021FA00F010607047AB
:101B70000000000000000039001BB74B0024744A2D
:101B80004EF6885140F20000CEF20001C0F600008F
:101B900041F8800C086840F470000860704700004D
:101BA000816A0A070CD4CA0715D18A071ED44A07CE
:101BB00027D4CA0630D48A0639D44A0642D454E01F
:101BC0000268D0F838C0536823F4004343EA0C039A
:101BD0005360CA07E9D00268D0F82CC0536823F4D8
:101BE000003343EA0C0353608A07E0D50268D0F85B
:101BF00030C0536823F4803343EA0C0353604A0730
:101C0000D7D50268D0F834C0536823F4802343EA60
:101C10000C035360CA06CED50268D0F83CC0936866
:101C200023F4805343EA0C0393608A06C5D5026807
:101C3000D0F840C0936823F4005343EA0C03936048
:101C40004A0612D50268D0F844C0BCF5801F53681C
:101C500023F4801343EA0C03536006D1536823F442
:101C6000C00C836C43EA0C035360090658BF7047ED
:101C70000168C06C4A6822F4002210434860704733
:101C8000B0B582B004460020C4F89000FEF7A4FC72
:101C9000216805460A68120737D54FF40011002263
:101CA0006FF07E40009020462B4600F0D9FA58B3E2
:101CB000206850E8000F216820F0800041E8000211
:101CC000002A1FBF206850E8000F216820F0800024
:101CD0001CBF41E80002002A12D0206850E8000F23
:101CE000216820F0800041E800024AB1206850E8F5
:101CF000000F216820F0800041E80002002AD7D1BF
:101D00000320202188226CE02168086840075FD505
:101D10004FF4800100226FF07E40009020462B4659
:101D200000F09EFA002853D0206850E8000F216888
:101D300020F4907041E80002F2B1206850E8000FF2
:101D4000216820F4907041E80002002A1FBF20683B
:101D500050E8000F216820F490701CBF41E8000299
:101D6000002A09D0206850E8000F216820F4907004
:101D700041E80002002AD7D1206850E8020F21680C
:101D800020F0010041E80202002A1FBF206850E84D
:101D9000020F216820F001001CBF41E80202002A66
:101DA00012D0206850E8020F216820F0010041E8BD
:101DB00002024AB1206850E8020F216820F00100B9
:101DC00041E80202002AD7D1032020218C2208E01A
:101DD0002020C4F88800C4F88C0000217022002064
:101DE000E166A150002184F8841002B0B0BD00006B
:101DF000F0B581B00446006846F6F31640F6004E92
:101E000022696569D4E902130A43E7690168CCF6DF
:101E1000FF762A4331401143C5F6000E3943016075
:101E20004168704521F4405144F2004C41EA0301FD
:101E30004160A2694FF2FF431CBF216A0A438168D7
:101E4000C1F2FF131940C5F6020C1143816047F23D
:101E5000FF72C16AC4F2000221F00F01656A90426C
:101E60004FF0800341EA0501C16213DC44F6FF3103
:101E7000C4F20001884221DC44F20041C4F20001B6
:101E8000884227D044F60001C4F20001884221D0E4
:101E90002AE000BF40F6FF71C4F20021884200F33F
:101EA000F78047F60001C4F20001884212D047F6DD
:101EB0000041C4F2000188420CD015E044F6004114
:101EC000C4F20001884205D045F20001C4F20001CD
:101ED000884209D1DCF8501001F00702062A03D22B
:101EE0000FF268318B181B78704540F60010C0F275
:101EF0003D0000F05380B7F5004F40F07B80402B51
:101F00004FF0010100F29581DFE813F04200460135
:101F1000930193014E0193019301930156019301A3
:101F20009301930193019301930193012201930182
:101F30009301930193019301930193019301930101
:101F40009301930193019301930193015A0193012A
:101F500093019301930193019301930193019301E1
:101F600093019301930193019301930193019301D1
:101F700093019301930193019301930193019301C1
:101F80009301930193019301930193013E0100BFDB
:101F9000FFF75AF9002840F0128146E19A1E01210C
:101FA0001E2A00F29180DFE812F01F004401A30016
:101FB000440144014401A700440144014401440197
:101FC0004401440144019500440144014401440199
:101FD00044014401440144014401440144014401D9
:101FE000440144014401AD00FFF766F9002840F0C8
:101FF00088801AE1402B4FF0010100F21A81DFE8DE
:1020000013F04100CF0018011801D7001801180182
:102010001801FB0018011801180118011801180116
:102020001801B5001801180118011801180118014C
:1020300018011801180118011801180118011801D8
:102040001801FF00180118011801180118011801E2
:1020500018011801180118011801180118011801B8
:1020600018011801180118011801180118011801A8
:102070001801180118011801180118011801180198
:102080001801C700FFF7E0F8002840F0B880CCE066
:1020900070450FD041F20001C4F2002188427FF464
:1020A00023AFDCF8541001F00702062ABFF41CAF7E
:1020B00068A117E7DCF8581001F00702062ABFF400
:1020C00013AF60A10EE700BF402B40F0B2804FF489
:1020D000004017E0DCF80000800649F20000C0F282
:1020E000D0300FD5DCF80010C1F3C101C84009E0C1
:1020F000FFF7FEF828B998E0FFF766F9002800F02E
:102100009480656A44F238716268C0F6000131F863
:102110001510B0FBF1F002EB420188424FF00101D3
:10212000C0F087801303984200F28380010E0023E1
:10213000000210EB520041F10001FEF7D5F84FF616
:102140000052A0F54071C0F20F0291426BD36FE0D4
:10215000DCF80000800649F20000C0F2D0302FD534
:10216000DCF80010C1F3C101C84029E0DCF8000030
:10217000800649F20000C0F2D03041D5DCF80010F2
:10218000C1F3C101C8403BE04FF4004018E000BF7C
:102190004FF4004034E000BFFFF772F878B944E034
:1021A000FFF76EF858BB40E0FFF7A2F838B93CE003
:1021B000FFF79EF818BB38E0FFF706F9A8B3656A89
:1021C00044F23871C0F6000131F81510B0FBF1F09F
:1021D00061684A0802EB40004FF6EF72B0FBF1F085
:1021E000A0F11001914223D84FF6F0710140C0F3E5
:1021F0004200084417E000BFFFF7E6F8A8B1656A9F
:1022000044F238716268C0F6000131F81510B0FB75
:10221000F1F000EB5200B0FBF2F0A0F110014FF62C
:10222000EF72914204D82168C860002101E000BF2C
:1022300001214FF00110A0660020C4E91D000846EE
:1022400001B0F0BD02040810204000000004081096
:1022500020400000010408102040000000000000A1
:102260002DE9F041804600680D46C7693940491B99
:10227000B1FA81F149098A4225D1069C34B3164648
:10228000611C29D1C1692940491BB1FA81F1490971
:102290008E4218D1C1692940491BB1FA81F149091F
:1022A0008E4201BFC1692940491BB1FA81F104BFC7
:1022B00049098E4207D1C1692940491BB1FA81F110
:1022C00049098E42DED00020BDE8F081FEF784F996
:1022D0000320BDE8F08100BF1F4607E0C069284029
:1022E000401BB0FA80F040098642ECD1FEF774F949
:1022F000C01BA04200F2B680D8F800000168490770
:10230000ECD5402D18BF802DE8D0C169090700F138
:10231000AD80C1690905E1D54FF400610162D8F8CB
:10232000000050E8000FD8F8001020F4907041E849
:10233000000222B3D8F8000050E8000FD8F80010CF
:1023400020F4907041E80002002A1FBFD8F8000076
:1023500050E8000FD8F8001020F490701CBF41E83E
:102360000002002A0BD0D8F8000050E8000FD8F87F
:10237000001020F4907041E80002002ACFD14FF6FF
:10238000FE70CEF6FF70D8F8001051E8021FD8F8A2
:102390000020014042E802130BB3D8F8001051E8C6
:1023A000021FD8F80020014042E80213002B1FBF93
:1023B000D8F8001051E8021FD8F8002001401CBFD7
:1023C00042E80213002B0AD0D8F8001051E8021F8F
:1023D000D8F80020014042E80213002BD3D1D8F8EE
:1023E0006C0001282FD1D8F8000050E8000FD8F871
:1023F000001020F0100041E8000222B3D8F80000DD
:1024000050E8000FD8F8001020F0100041E800025A
:10241000002A1FBFD8F8000050E8000FD8F80010BD
:1024200020F010001CBF41E80002002A0BD0D8F8B1
:10243000000050E8000FD8F8001020F0100041E82C
:102440000002002ACFD12020C8F88C000021C8F853
:102450006C10C8F87410C8F89000032088F8841035
:10246000BDE8F0810320BDE8F08100BF08210162D2
:10247000D8F8000050E8000FD8F8001020F4907051
:1024800041E8000222B3D8F8000050E8000FD8F865
:10249000001020F4907041E80002002A1FBFD8F815
:1024A000000050E8000FD8F8001020F490701CBF16
:1024B00041E80002002A0BD0D8F8000050E8000FD5
:1024C000D8F8001020F4907041E80002002ACFD123
:1024D0004FF6FE70CEF6FF70D8F8001051E8021FDC
:1024E000D8F80020014042E802130BB3D8F80010DE
:1024F00051E8021FD8F80020014042E80213002BE7
:102500001FBFD8F8001051E8021FD8F80020014082
:102510001CBF42E80213002B0AD0D8F8001051E883
:10252000021FD8F80020014042E80213002BD3D14B
:10253000D8F86C0001282FD1D8F8000050E8000F1F
:10254000D8F8001020F0100041E8000222B3D8F8BB
:10255000000050E8000FD8F8001020F0100041E80B
:102560000002002A1FBFD8F8000050E8000FD8F87A
:10257000001020F010001CBF41E80002002A0BD020
:10258000D8F8000050E8000FD8F8001020F0100034
:1025900041E80002002ACFD12020C8F88C0000209A
:1025A000C8F86C00C8F874000821C8F8901088F8C2
:1025B00084000120BDE8F081FEE70000000000007B
:1025C00086B04EF660740120CEF200040290FEF751
:1025D00087F848F21F70049040F20110059002A89D
:1025E00000250395FEF748F80420FEF78DF84FF616
:1025F000B451CFF6FF716058800311D4BFF34F8FF1
:10260000BFF36F8F44F8105CBFF34F8FBFF36F8F32
:10261000605840F400306050BFF34F8FBFF36F8FAE
:102620006058C00360D44FF624600021CFF6FF70DD
:10263000012343F6E07B21504FF62060CFF6FF7078
:10264000BFF34F8F2058C208C0F3C907C0F34E3103
:10265000A7F1020A03EBD006781E930706F00306E3
:102660004FEA807E4FEA8A720192FA1E009203E0DE
:102670000029A1F1010129D00BEA41153A467EB1AA
:10268000012E43EA05022260024609D0022E4EEADC
:1026900005022260524603D0019A2A432260009A22
:1026A000032FE5D345EA8275013205F1404C85F0F0
:1026B000004805F1804900BF043A2560C4F800C015
:1026C000C4F80080C4F80090F6D1D1E74FF6B451B9
:1026D000CFF6FF71BFF34F8F605840F480306050E9
:1026E000BFF34F8FBFF36F8FFFF7BAF9FDF78CFF82
:1026F000FFF7C6F8FFF710F900F026F8FFF7ACF87F
:1027000000F04AF8FEE70000EFF3058100291CBF46
:102710006FF00500704710B5044601F0A5FD0146B5
:102720002046012904D108B101F052F8002010BD63
:10273000EFF3108119B9EFF311810029F3D06FF095
:10274000050010BD00000000EFF3058000281CBF4D
:102750006FF00500704780B501F086FD012811D1AA
:1027600001F082FD01284FF0FF3009D140F20C1139
:10277000C2F200410A68002A02BF0120086000205E
:1027800080BD00BFEFF3108018B9EFF3118000286F
:10279000E6D06FF0050080BDEFF3058000281CBF78
:1027A0006FF00500704780B501F05EFD012819D17A
:1027B00001F05AFD01284FF0FF3012D140F20C1108
:1027C000C2F200410A68012A18BF80BD4EF61F50B0
:1027D0000022CEF2000002700220086001F004F92D
:1027E000002080BDEFF3108018B9EFF311800028AE
:1027F000DED06FF0050080BD2DE9F04385B00024E8
:102800000494EFF305831BB1204605B0BDE8F083C7
:10281000154604460E4601F027FD012808D1204642
:10282000B446BCB90024204605B0BDE8F08300BF23
:10283000EFF3108020B10024204605B0BDE8F083FE
:102840002046002C4FF00004EFF31181DCD000296A
:10285000B446D9D14FF0000435B3AB69002B08BFA3
:102860001823382BD0D82979C907CDD16F69BA0878
:10287000002FD5E90289964608BF4FF0800EB8F1C7
:10288000000F296824D0B9F15C0FBDD32E69002E4A
:1028900018BF002FB8D08DE84801634601F098FCBE
:1028A00005B0BDE8F08300BF4FF0800E1823002173
:1028B0001FFA8EF204AFCDE90037334601F058FC21
:1028C0000499012808BF0C46204605B0BDE8F083F6
:1028D000B9F1000F98D12A69002A95D1E8E70000E4
:1028E0002DE9F04381B0044600F0BAFD40F2100635
:1028F00040F29828C2F20046C2F2004840F29C25FD
:10290000B068C2F200450130B060D8F8000068B18C
:10291000F068002840F00A81D8F80000E16AC06A37
:10292000884298BFC8F8004000E100BFC8F80040E6
:10293000B068012840F0FA80284600F041FD05F11A
:10294000140000F03DFD05F1280000F039FD05F10F
:102950003C0000F035FD05F1500000F031FD05F1BF
:10296000640000F02DFD05F1780000F029FD05F16F
:102970008C0000F025FD05F1A00000F021FD05F11F
:10298000B40000F01DFD05F1C80000F019FD05F1CF
:10299000DC0000F015FD05F1F00000F011FD05F57B
:1029A000827000F00DFD05F58C7000F009FD05F555
:1029B000967000F005FD05F5A07000F001FD05F52D
:1029C000AA7000F0FDFC05F5B47000F0F9FC05F507
:1029D000BE7000F0F5FC05F5C87000F0F1FC05F5DF
:1029E000D27000F0EDFC05F5DC7000F0E9FC05F5B7
:1029F000E67000F0E5FC05F5F07000F0E1FC05F58F
:102A0000FA7000F0DDFC05F5027000F0D9FC05F568
:102A1000077000F0D5FC05F50C7000F0D1FC05F551
:102A2000117000F0CDFC05F5167000F0C9FC05F53D
:102A30001B7000F0C5FC05F5207000F0C1FC05F529
:102A4000257000F0BDFC05F52A7000F0B9FC05F515
:102A50002F7000F0B5FC05F5347000F0B1FC05F501
:102A6000397000F0ADFC05F53E7000F0A9FC05F5ED
:102A7000437000F0A5FC05F5487000F0A1FC05F5D9
:102A80004D7000F09DFC05F5527000F099FC05F5C5
:102A9000577000F095FC05F55C7000F091FC05F5B1
:102AA000617000F08DFC05F5667000F089FC05F59D
:102AB0006B7000F085FC05F5707000F081FC05F589
:102AC000757000F07DFC05F57A7000F079FC05F575
:102AD0007F7000F075FC05F5826000F071FC05F276
:102AE000244000F06DFC05F5876000F069FC05F2FC
:102AF0004C4000F065FC40F2E409C2F2004948464F
:102B000000F05EFC09F11407384600F059FC06F1AC
:102B10004C0000F055FC06F1380000F051FC06F1C5
:102B2000600000F04DFCC6F81890F7613068271D72
:102B3000316A421CE06A32608842626488BF306257
:102B400000EB800005EB800161614A68A260936838
:102B5000E36097605F6055F82010013145F8201060
:102B600000F0A6FCF06880B1D8F80000E16AC06A05
:102B700088420AD24EF604504FF08051CEF2000047
:102B80000160BFF34F8FBFF36F8F01B0BDE8F083DB
:102B900040F2100540F29C264EF60458C2F2004561
:102BA000C2F20046CEF200084FF0805703E000BFAB
:102BB000204600F095FC6868D0B100F051FC686CCC
:102BC000C468201D00F0C8FBA8680138A8606868C8
:102BD0000138686000F06CFC94F859000228EAD0D3
:102BE0000128E5D070B9206B00F07AFCE0E700BF67
:102BF00030680228DFD3C8F80070BFF34F8FBFF3EF
:102C00006F8FD8E74FF0500080F31188BFF36F8FBC
:102C1000BFF34F8FFEE700002DE9F04381B00A9C1F
:102C200016460F468146206B9100A5229846089DC6
:102C3000FDF79DFB002F206B41D0397884F83410CC
:102C4000D1B3797884F83510B1B3B97884F83610F7
:102C500091B3F97884F8371071B3397984F8381062
:102C600051B3797984F8391031B3B97984F83A10CD
:102C700011B3F97984F83B10F1B1397A84F83C103A
:102C8000D1B1797A84F83D10B1B1B97A84F83E10A7
:102C900091B1F97A84F83F1071B1397B84F8401012
:102CA00051B1797B84F8411031B1B97B84F842107D
:102CB00011B1F97B84F84310002184F84310382DBA
:102CC0000AD34FF0500080F31188BFF36F8FBFF32A
:102CD0004F8F00BFFEE700BF00EB8600099F04385E
:102CE000E56220F00706201DE56400F075FB04F1A5
:102CF000180000F071FBC5F13800A061304649466C
:102D000042462461646200F00FFB002F206018BF70
:102D10003C6001B0BDE8F08308480068006880F3BB
:102D200008884FF0000080F3148862B661B6BFF3E4
:102D30004F8FBFF36F8F00DF00BF000008ED00E092
:102D400081B00020009040F20C00C2F20040006808
:102D50004FF0500181F31188BFF36F8FBFF34F8F96
:102D6000013003D0FEE700BF009838B9009828B9B9
:102D70000098002804BF00980028F5D001B07047E3
:102D800084B040F28409E846C2F20049D9F808004C
:102D900006681EB1C068D0F800A001E04FF0000A3C
:102DA00000F0A6FE01F070FAD9F8101083468842B0
:102DB0001FD3002EC9F810B060D0DA455ED801F0FC
:102DC0009FFBD9F80800C068C668371D384600F078
:102DD000C3FA96F82800410738D400F0FA0086F8C4
:102DE000280071E000F0FA0086F82800316A3046C9
:102DF0008847D9F808000168B1B3C068C66805689B
:102E0000371D384600F0A8FA96F828004107E9D5A2
:102E1000B069441974604019366108D2316A30468D
:102E20008847B0692118044474603661F6D3D9F834
:102E30000C00394600F0D4FAD8E700BFABEB0A012A
:102E400081423BD3316A30468847A246B069366139
:102E500000EB0A0474605C45F0D9D34509F1080021
:102E60002ED25445EED22BE0D9F80C10C9F810B090
:102E7000C9E9021001F044FB30E000BF16B10022A6
:102E800006E000BFD9F80C000068B0FA80F04209F3
:102E9000D9F80000AAEB0B0100F066FC01F030FB52
:102EA000E0B94EF604504FF08051CEF200000160C0
:102EB000BFF34F8FBFF36F8F10E000BF09F10C001D
:102EC0000068394600F08CFA316A3046884705E0E0
:102ED00009F10C063068394600F082FAD9F8000092
:102EE0000022414600F0D4FF00283FF44FAF009885
:102EF000B0F1FF3F06DCDDE901200399904700981F
:102F00000028EBD4DDF808B0DBF8140018B10BF1A1
:102F1000040000F021FA01F0B7F9D9F81010824648
:102F2000884208D330E000BF00F0FA0087F828009C
:102F3000396A38468847D9F80800016801B3C06883
:102F4000C76805683C1D204600F006FA97F828007F
:102F50004107E9D5B86946197E6040193F6108D23A
:102F6000396A38468847B869311806447E603F613F
:102F7000F6D3D9F80C00214600F032FAD8E700BFAA
:102F8000D9F80C10C9E902100098C9F810A001384E
:102F90000828A3D8DFE800F00606482C6E0606488D
:102FA0002C0000BF9BF82810019ADBF818005F4640
:102FB00041F001038BF82830831847F8043F53454C
:102FC000CBF810B008D9924509F10806BFF482AFDA
:102FD000934206D27EE700BFAAEB02028242FFF4D0
:102FE00077AF4A0728D401F0FA008BF828004FE0A9
:102FF0009BF8280040F00101019800288BF8281068
:10300000CBF818004AD0504409F10C0259465045FB
:1030100088BF09F1080241F8040FCBF810B010681E
:1030200000F0DEF95AE700BF9BF8280000F0FE0030
:103030008BF8280052E700BF019901440BE000BF64
:10304000AAEB010181421DD3DBF8201058468847C6
:10305000DBF8180021460C18CBF804405445CBF897
:1030600010B0EDD98A4509F108000DD28C42EBD29F
:103070000AE000BF9BF828008107D7D4584600F02B
:103080002FFA2BE709F10C000068394600F0A8F987
:10309000DBF820105846884720E700BF4FF050006B
:1030A00080F31188BFF36F8FBFF34F8FFEE70000EF
:1030B000F0B581B0044600F0D3F994F94560012ED3
:1030C00010DB04F1240503E0F0B2013E012809D928
:1030D000286838B1284601F09FF90028F4D000F0A4
:1030E000CFFBF1E7FF2684F8456000F0E1F900F03E
:1030F000B7F994F94470012F10DB04F1100503E0D7
:10310000F8B2013F012809D9286838B1284601F0F2
:1031100083F90028F4D000F0B3FBF1E784F84460B1
:1031200001B0BDE8F04000F0C3B9000000000000AD
:1031300070B5044600F0DCFC40F2C00CC2F2004C5A
:10314000DCF8003023B104F10802092A28D22DE06E
:1031500040F2FC60C2F20040C11D10F0070221F0F5
:103160000701A0EB010202F5705204BF01464FF4C3
:10317000705200200A4422F00702A2F10803CCF8A2
:103180000030CCE9051042E90200581A4860DCF82A
:1031900000300B60CCE9010004F10802092A05D3D4
:1031A00014F007000ED00938824207D9002401F03C
:1031B000A7F960075DD1204670BD00BF24F007006D
:1031C00000F11002012A4FF000044EDBDCF804008D
:1031D00082424AD8604650F814EFDEF80440944228
:1031E0002BD2DEF80010B9B175464C68944217D264
:1031F0000E68AEB17468944216D23068A0B14468CB
:10320000944215D205689DB16C68944214D2296825
:10321000AE460029E9D110E00CF114000DE000BF2A
:103220008E46284609E000BFB646084605E000BFC6
:103230008646304601E000BFAE469E4514D0A11A36
:1032400003681129DEF8004004604FD30EEB02043E
:10325000600719D04FF0500080F31188BFF36F8FD3
:10326000BFF34F8FFEE700BF002401F049F960076C
:10327000A1D04FF0500080F31188BFF36F8FBFF3E0
:103280004F8F00BFFEE700BF0CF114006160CEF865
:1032900004200168A1420BD20868A0420CD2016848
:1032A000A14205D208680A46A042F2D305E000BF59
:1032B0000246084601E000BF0A4655685119A1427E
:1032C000616802D12944144651606518854201D0D5
:1032D000054607E0DCF80050A84203D0D0E90050D2
:1032E00008446060A242256018BF1460DEF8040044
:1032F00003F10804DCE90112091ACCF80410914228
:1033000040F0004038BFCCF808100021CEE9001092
:10331000DCF80C000130CCF80C0001F0F1F860078B
:10332000A7D148E70000000042F6415321F0010117
:1033300040F8081C4FF0807140F8041CA0F14401D3
:10334000C0F6000340F80C3C6FF0020340E909327C
:1033500008467047000000000169D0E90132D1F849
:1033600004C09A608445536008BF4A60002202612D
:103370000868013808600868704700000000000015
:1033800044F20053C2F20043036044F20030C2F240
:1033900000400860802010607047000000000000BE
:1033A00044F65C13C2F20043036044F25C50C2F284
:1033B000004008604FF4807010607047000000000B
:1033C00002464FF0FF3142F8081F00214260C0E979
:1033D0000322016070470000002101617047000076
:1033E00010B5D1F800C01CF1010213D000F108049F
:1033F00062681368634511D853681C68644511D826
:103400005A68146864450FD85468A6462368634513
:10341000EED90BE00269D2F804E007E096462246B6
:1034200004E000BF9E4601E096461A46C1F804E05B
:10343000CEF808108A6051600861016801310160AE
:1034400010BD000000000000DFF80C00016841F42E
:10345000700101607047000088ED00E0000000008E
:103460004FF0500080F31188BFF36F8FBFF34F8F81
:1034700040F20C00C2F200400168002901F1010194
:10348000016001D0704700BF4EF60450CEF200003C
:103490000068000608BF70474FF0500080F31188A5
:1034A000BFF36F8FBFF34F8FFEE7000000000000F7
:1034B00040F20C00C2F20040016839B101390160EC
:1034C00018BF7047002080F3118870474FF05000FC
:1034D00080F31188BFF36F8FBFF34F8FFEE70000BB
:1034E000B0B5002808BFB0BD50F8041C002909D4AD
:1034F0004FF0500080F31188BFF36F8FBFF34F8FF1
:10350000FEE700BFA0F1080422684AB14FF0500066
:1035100080F31188BFF36F8FBFF34F8FFEE700BFBB
:1035200021F0004140F8041C054600F0E1FA40F2A9
:10353000C00C55F8041CC2F2004C0CF11402DCF86B
:1035400004000844CCF804001068A0420AD20268C3
:10355000A24213D21068A04204D202680346A242DB
:10356000F2D301E01346024658681D18A5420AD05E
:10357000601890420DD0104613E000BF0346586813
:103580001D18A542F4D101441C46596060189042B0
:10359000F1D1DCF80000824203D0D2E900021144EC
:1035A0006160A342206018BF1C60DCF8100001308D
:1035B000CCF81000BDE8B04000F0A2BF0000000051
:1035C0004EF210000021CEF2000044F6D352C1F2B8
:1035D00062020160816040F20801C2F200410968A4
:1035E000A1FB02124FF0FF3101EB92114160072164
:1035F000016070470000000000286BD0002908BF60
:103600007047B0B544F6B812C2F20042536898420F
:103610006AD0D36898426DD05369984272D0D3690A
:10362000984277D0536A984200F07C80D36A9842DF
:1036300000F08080536B984200F08480D36B9842F6
:1036400000F0888015464FF0000CD2F800E055F8E5
:10365000084F002C144618BF6546BEF1000F08BF86
:10366000154654F8103F002B134618BF6446002D32
:1036700018BF2C4653F8185F002D154618BF634637
:10368000002C18BF234655F8204F002C144618BFB5
:103690006546002B18BF1D4654F8283F002B1346E3
:1036A00018BF6446002D18BF2C4653F8305F002D1C
:1036B00018BF6346002C18BF2346002B4CD152F88C
:1036C000383F002B134608BFC3E90010BDE8B040E7
:1036D000704700BF4FF0500080F31188BFF36F8F29
:1036E000BFF34F8FFEE700BF1346C3E90010BDE8EC
:1036F000B040704702F10803C3E90010BDE8B040D4
:10370000704700BF02F11003C3E90010BDE8B040EC
:10371000704700BF02F11803C3E90010BDE8B040D4
:10372000704700BF02F12003C3E90010BDE8B040BC
:10373000704700BF02F12803C3E90010BDE8B040A4
:10374000704700BF02F13003C3E90010BDE8B0408C
:10375000704700BF02F13803C3E90010BDE8B04074
:10376000704700000000000070B515460E46044684
:10377000FFF776FE94F84400FF280DD094F845003A
:10378000FF2810D0FFF794FEA06BA0B12046BDE843
:103790007040FFF78DBC00BF002084F8440094F80F
:1037A0004500FF28EED1002084F84500FFF780FE99
:1037B000A06B0028EAD104F1240031462A4600F02B
:1037C000B7F82046BDE87040FFF772BC000000006B
:1037D000F0B581B0002839D040F21004C2F20044A4
:1037E000216949B14FF0500080F31188BFF36F8F0A
:1037F000BFF34F8FFEE700BF216940F298260131E9
:103800002161C2F200466569074631680431084605
:10381000FFF7A2FD3068ED19456009D3E069316812
:103820000431FFF7DDFD00F06BFE68B90EE000BF6C
:10383000A06931680431FFF7D3FDE06A854238BFE3
:10384000E56200F05DFE08B101B0F0BD4EF6045037
:103850004FF08051CEF200000160BFF34F8FBFF3F5
:103860006F8F01B0F0BD000040F21001C2F20041C4
:103870004A6B026049694160704700000000000027
:1038800040F210000121C2F2004041627047000086
:10389000F0B581B000B340F298260C46C2F2004663
:1038A00031681831FFF79CFD40F21005C2F2004567
:1038B0006F6930680430FFF74FFD601C16D0306828
:1038C000E419446026D3E8693168043101B0BDE8E9
:1038D000F040FFF785BD00BF4FF0500080F3118826
:1038E000BFF36F8FBFF34F8FFEE700BF30683168C3
:1038F00032683368376855F8606F6C6884607D6142
:10390000A068C860111D4160181DA060701C28606F
:1039100001B0F0BDA86931680431FFF761FDE86AC4
:10392000844238BFEC6201B0F0BD0000000000002E
:103930002DE9F041A0B340F298271546C2F20047A6
:103940008846416840F210063A68C2F20046D161EA
:103950008A683B681A623B68183353603A681832C9
:103960008A60396888620168013101607469386869
:103970000430FFF7F1FCEDB1386839683A683B680C
:103980003F6856F8605F746884607E61A068C860B4
:10399000111D4160181DA060681C3060BDE8F081F9
:1039A0004FF0500080F31188BFF36F8FBFF34F8F3C
:1039B000FEE700BF386814EB0804446006D3F069E2
:1039C00039680431BDE8F041FFF70ABDB0693968D4
:1039D0000431FFF705FDF06A844228BFBDE8F0819D
:1039E000F462BDE8F081000070B588B0002005A940
:1039F000CDE9050006A804AAFFF7C2FC059E002E2B
:103A000048D0069C002C4FD0049D5C20079007985E
:103A10005C2853D107985C212046FCF7AFFC266355
:103A2000022084F8590007A800210023CDE90010E6
:103A300042F691302BA1C0F600002A460294FFF70F
:103A4000EBF82046FEF74CFF40F210040798C2F254
:103A50000044A062B0B100F0F3FD411C38D0012851
:103A600010D14FF0500080F31188BFF36F8FBFF378
:103A70004F8F4FF0FF30E0620120E0600020606176
:103A800000F0A2F844F27870C0F60000006808B0B8
:103A900070BD00BF4FF0500080F31188BFF36F8FEF
:103AA000BFF34F8FFEE700BF4FF0500080F3118847
:103AB000BFF36F8FBFF34F8FFEE700BF4FF0500093
:103AC00080F31188BFF36F8FBFF34F8FFEE700BF06
:103AD0004FF0500080F31188BFF36F8FBFF34F8F0B
:103AE000FEE700BF49444C45000000000000000014
:103AF00040F21000C2F200400169013101617047DB
:103B000080B540F2100EC2F2004EDEF8101019B16E
:103B10000121CEF8241080BD0021CEF82410DEF85B
:103B2000201040F29C2CC2F2004C01EB81025CF8A8
:103B30002230002B0CEB820312D05868426803F14C
:103B4000080082425A6001D1DA685A6040F2982037
:103B5000D268C2F200400260CEF8201080BD00BFE3
:103B6000283BC9B101EB810258690CEB8202E8B92C
:103B7000012911D01868E8B902290DD053F8140CA6
:103B8000E0B9032908D053F8280C04390028A3F120
:103B90005003E6D02833D0E74FF0500080F311886F
:103BA000BFF36F8FBFF34F8FFEE700BFA2F1140387
:103BB0000139C2E7A2F128030239BEE7A2F13C03B2
:103BC0000339BAE700000000B0B584B04EF20040FF
:103BD0004CF27021CEF20000C4F20F114B1CD0F851
:103BE00000299A420AD14FF0500080F31188BFF3A8
:103BF0006F8FBFF34F8F00BFFEE700BFD0F80029E3
:103C00008A4209D14FF0500080F31188BFF36F8FC3
:103C1000BFF34F8FFEE700BF0021019101788DF8BF
:103C20000B10FF21017001788DF803109DF803102F
:103C300011F0500240F2DC01C2F200410A700BD0D8
:103C40009DF8032002F05002502A0FD19DF9032065
:103C5000B2F1FF3F48DC1FE04FF0500080F31188C5
:103C6000BFF36F8FBFF34F8FFEE700BF4FF05000E1
:103C700080F31188BFF36F8FBFF34F8FFEE700BF54
:103C8000019A013201929DF8032052008DF8032021
:103C90009DF90320002A27D5019A013201929DF84F
:103CA000032052008DF803209DF90320B2F1FF3F5D
:103CB0001ADC019A013201929DF8032052008DF81E
:103CC00003209DF90320B2F1FF3FDFBF019A0132CB
:103CD00001929DF80320DFBF52008DF803209DF96B
:103CE0000320B2F1FF3FCBDD019A0024082A4FF0F8
:103CF000000206D0019A4FF4E063A3EB022202F423
:103D0000E0624A609DF80B100170D0F8201941F470
:103D10007F01C0F82019D0F8201941F07F41C0F888
:103D20002019FFF74DFC40F20C05C2F200452C6053
:103D3000FFF78AFB4EF63470CEF20000016841F0C6
:103D400040410160FEF7E8FFFFF7DAFE03942868C0
:103D50004FF0500181F31188BFF36F8FBFF34F8F86
:103D6000013003D0FEE700BF039838B9039828B9A3
:103D70000398002804BF03980028F5D0002004B061
:103D8000B0BD00000000000080B54FF0500080F38F
:103D90001188BFF36F8FBFF34F8F00F07DFA30B102
:103DA0004EF604504FF08051CEF20000016000202A
:103DB00080F3118880BD000070B582B073B118B176
:103DC00001B90AB9A1B19AB94FF0500080F3118836
:103DD000BFF36F8FBFF34F8FFEE700BF4FF0500070
:103DE00080F31188BFF36F8FBFF34F8FFEE700BFE3
:103DF00050250195019D502D18D1019DA0FB014535
:103E00004FF0010C002983F846C008BF1A461A601B
:103E1000C3E90F01A5B14FF0500080F31188BFF343
:103E20006F8FBFF34F8F00BFFEE700BF4FF0500012
:103E300080F31188BFF36F8FBFF34F8FFEE700BF92
:103E4000069E1C46FFF70CFBD4E90F0122680025F3
:103E500001FB0023013800FB0120A5636260C4E977
:103E60000230FF2084F8440084F8450004F110007B
:103E7000FFF7A6FA04F12400FFF7A2FAFFF718FBF8
:103E800084F84C60204602B070BD000000000000C5
:103E90002DE9F04F83B0029290B1044615460029F7
:103EA00048D00E4600F0E0F9A0B99DB14FF05000A7
:103EB00080F31188BFF36F8FBFF34F8FFEE700BF12
:103EC0004FF0500080F31188BFF36F8FBFF34F8F17
:103ED000FEE700BFFFF7C4FAD4F838A0BAF1000F2C
:103EE00036D0226C52B1D4E90231114430469942A5
:103EF000E16001D32168E160FCF727FAAAF1010033
:103F0000A06354F8100F70B1204600F085FA50B14C
:103F10004EF604504FF08051CEF200000160BFF326
:103F20004F8FBFF36F8F0124FFF7C2FA204603B013
:103F3000BDE8F08F206C0028B3D04FF0500080F324
:103F40001188BFF36F8FBFF34F8F00BFFEE700BF35
:103F50000298002800F0B4806846FFF785FCFFF760
:103F6000A7FAFFF7C5FDFFF77BFA94F84400FF2896
:103F700002D1002084F8440094F8450004F124089C
:103F8000FF2802D1002084F84500FFF791FA684627
:103F900002A900F09DF878B12046FFF789F800F0FB
:103FA000AFFAFFF75DFAA56BFFF782FA2DBB00248D
:103FB000204603B0BDE8F08FFFF752FAA56BFFF77C
:103FC00077FA2DB12046FFF773F800F099FA14E064
:103FD00002994046FFF75CFC2046FFF769F800F0C5
:103FE0008FFA50B94EF604504FF08051CEF20000D7
:103FF0000160BFF34F8FBFF36F8FFFF731FAD4F833
:1040000038A0BAF1000F7FF46CAF4FF00009EB4617
:1040100002AF13E02046FFF74BF800F071FAFFF70C
:104020001FFAA56BFFF744FA002DC0D0FFF718FA6E
:10403000D4F838A0BAF1000F7FF453AF02980028EB
:104040003ED0FFF735FAFFF753FDFFF709FA94F872
:104050004400FF2808BF84F8449094F84500FF28E6
:1040600008BF84F84590FFF723FA5846394600F018
:104070002FF80028CED1FFF7F3F9A56BFFF718FA58
:1040800035B12046FFF714F800F03AFACEE700BF4A
:1040900002994046FFF7FCFB2046FFF709F800F0C5
:1040A0002FFA0028C2D14EF604504FF08051CEF2C4
:1040B00000000160BFF34F8FBFF36F8FB6E700BF03
:1040C0000024FFF7F5F9204603B0BDE8F08F0000AB
:1040D000B0B548B30C4689B30546FFF7C1F940F2C5
:1040E000100CC2F2004CDCF814302268501C37D09F
:1040F000AE46D5E90050DCF83410A94201D0834225
:1041000026D2181A824223D9101A2060DCF8340013
:10411000CEF80000DCF81400CEF804000024FFF70D
:10412000C7F92046B0BD00BF4FF0500080F31188A2
:10413000BFF36F8FBFF34F8FFEE700BF4FF050000C
:1041400080F31188BFF36F8FBFF34F8FFEE700BF7F
:10415000002020600124FFF7ABF92046B0BD00BF6E
:104160000024FFF7A5F92046B0BD000000000000C4
:104170002DE9F04F83B007469000984615468946D2
:10418000FEF7D6FFF8B104465C20FEF7D1FFB8B1C8
:104190005C210646DDE90CBAFCF7F0F838464946E2
:1041A0002A4643463463CDE900BA0296FEF734FD51
:1041B0003046FEF795FB012003B0BDE8F08F00BF4D
:1041C0002046FFF78DF94FF0FF3003B0BDE8F08FC8
:1041D0002DE9F04786B00F9F47B3109C84B35C264F
:1041E0000496049E5C2E35D1049E88465C210646CA
:1041F0002046DDF838A099461546FCF7BFF827633E
:10420000022084F8590005A8CDE901043046414652
:104210002A464B46CDF800A0FEF7FEFC2046FEF7EE
:104220005FFB059806B0BDE8F08700BF4FF0500077
:1042300080F31188BFF36F8FBFF34F8FFEE700BF8E
:104240004FF0500080F31188BFF36F8FBFF34F8F93
:10425000FEE700BF4FF0500080F31188BFF36F8F6F
:10426000BFF34F8FFEE7000040F21000C2F20040A3
:10427000C16829B10069B0FA80F040094000704778
:10428000012070470000000040F21000C2F2004020
:1042900040697047000000002DE9F04740F2100A25
:1042A000C2F2004ADAF8100040B1DAF8300001300A
:1042B000CAF830000020BDE8F08700BFDAF814002B
:1042C00010F10109CAF8149028D3DAF81800006830
:1042D00050B14FF0500080F31188BFF36F8FBFF3E0
:1042E0004F8F00BFFEE700BFDAF81800DAF81C3085
:1042F000CAF81830CAF81C00DAF834000130CAF8DD
:104300003400DAF81800006820B1DAF81800C06844
:10431000006801E04FF0FF30CAF82C00DAF82C00FA
:1043200040F2982C40F29C288145C2F2004CC2F227
:10433000004801D200205BE0DAF818004FF0000ED0
:10434000006800284CD0002021E000BFE66ADAF8BF
:1043500020108E4206EB860188BFCAF8206008EB69
:10436000810262615368A3609F68E7609D607D6021
:1043700058F82120013248F82120DCF80010C96AE1
:10438000DAF818208E4288BF0120116861B3DAF88C
:104390001840E468E468254655F8046FB14525D314
:1043A0006669D4E9023772689F60AA427B6008BFE1
:1043B00077603268013A3260A66A002EC6D0D4E92E
:1043C000072704F118037168976099427A6008BF63
:1043D0007760C4F828E0316801393160B6E700BF82
:1043E0004FF0FF36002001E04FF0FF36CAF82C6096
:1043F000DCF80010C96A01EB810158F8211001298D
:1044000088BF0120DAF82410002918BF0120BDE878
:10441000F087000000000000C068C06850B370B5AD
:10442000816A00F1180ED0E90723D1F804C0936027
:10443000F4455A604FF0000208BF4B60826240F2C0
:10444000100C0A68C2F2004C013A0A60DCF8101045
:10445000D1B1614651F84C2F81624B68C361013282
:104460009C680462C3F808E0C4F804E00A60C36A08
:1044700035E000BF4FF0500080F31188BFF36F8F1D
:10448000BFF34F8FFEE700BF436900F1040ED0E990
:1044900002215C68916074454A6040F29C2208BF2A
:1044A00059601968C2F2004201391960C36ADCF828
:1044B00020108B4203EB830188BFCCF8203002EB45
:1044C0008104446165688560AE68C660C5F808E02F
:1044D000C6F804E052F82100013042F8210040F211
:1044E0009820C2F200400068C06A8342BDE8704074
:1044F00004D90120CCF82400704700BF0020704789
:104500002DE9F04381B040F21004C2F2004420696A
:1045100070B1FEF7A5FF206901382061206988B1DC
:104520000024FEF7C5FF204601B0BDE8F08300BFC0
:104530004FF0500080F31188BFF36F8FBFF34F8FA0
:10454000FEE700BFA0680028EAD0E06C002854D045
:1045500040F29C2940F298284FF0000EC2F2004928
:10456000C2F200484FF0010CA06DC36803F11807B8
:10457000986AD3E907654268BA42B5606E6008BFC1
:104580004560C3F828E00268013A0260181D5D69C1
:10459000D3E902266F6887429660726008BF6E603A
:1045A0002A68013A2A60DD6A226A954205EB850293
:1045B00088BF256209EB82065E6177689F60B968F3
:1045C000D960B860486059F82200013049F82200EB
:1045D000D8F80000C06A854288BFC4F824C0E06CE7
:1045E0000028C1D1A069006820B1A069C068006836
:1045F00002E000BF4FF0FF30E062256B4DB10126B5
:10460000FFF74AFE002818BF6662013DF8D100207E
:104610002063606A00283FF483AF4EF604504FF0E9
:104620008051CEF2000001240160BFF34F8FBFF331
:104630006F8FFEF73DFF204601B0BDE8F08300001C
:1046400070B586B0FEF70CFF40F28406C2F2004659
:10465000306808BB06F114042046FEF7B1FE06F1EF
:1046600028052846FEF7ACFE40F2A81240F2482387
:10467000C2F20042C2F200430A201021C6E90245FC
:1046800000250095FFF798FB306028B144F2707167
:10469000C0F60001FEF7B0FFFEF70AFF3068D8B1A0
:1046A000002004A9CDE9040005A803AAFEF778FEBE
:1046B000DDE9032002210023CDE9001042F68150FC
:1046C0000AA1C0F60000059D0295FFF781FD70600C
:1046D00010B1012006B070BD4FF0500080F311887A
:1046E000BFF36F8FBFF34F8FFEE700BF546D722093
:1046F0005376630002E008C8121F08C1002AFAD1ED
:1047000070477047002001E001C1121F002AFBD151
:10471000704700006847000800000000000000002B
:10472000000000000000000000020000180000006F
:10473000000000000000000001000200040006006C
:1047400008000A000C00100020004000800000015A
:104750000102030406070809010101030701000023
:1047600008040204080101014C45445461736B00C4
:10477000546D72510000000037000000AC47000883
:104780000000002410000000F4460008AC470008B8
:10479000000000200004000004470008BC47000897
:1047A00010000024E8490000044700080100000050
:0C47B000100000000090D003AAAAAAAAE2
:04000005080002B13C
:00000001FF
